{
  "contractName": "ZKToken",
  "abi": [
    {
      "inputs": [
        {
          "internalType": "contract Verifier",
          "name": "_verifier",
          "type": "address"
        }
      ],
      "stateMutability": "nonpayable",
      "type": "constructor"
    },
    {
      "anonymous": false,
      "inputs": [
        {
          "indexed": false,
          "internalType": "bytes32",
          "name": "",
          "type": "bytes32"
        },
        {
          "indexed": false,
          "internalType": "uint256",
          "name": "",
          "type": "uint256"
        }
      ],
      "name": "Mint",
      "type": "event"
    },
    {
      "anonymous": false,
      "inputs": [
        {
          "indexed": false,
          "internalType": "address",
          "name": "account",
          "type": "address"
        }
      ],
      "name": "MinterAdded",
      "type": "event"
    },
    {
      "anonymous": false,
      "inputs": [
        {
          "indexed": false,
          "internalType": "address",
          "name": "account",
          "type": "address"
        }
      ],
      "name": "MinterRemoved",
      "type": "event"
    },
    {
      "anonymous": false,
      "inputs": [
        {
          "indexed": true,
          "internalType": "bytes32",
          "name": "from",
          "type": "bytes32"
        },
        {
          "indexed": true,
          "internalType": "bytes32",
          "name": "to",
          "type": "bytes32"
        },
        {
          "indexed": false,
          "internalType": "uint256",
          "name": "value",
          "type": "uint256"
        }
      ],
      "name": "Transfer",
      "type": "event"
    },
    {
      "inputs": [
        {
          "internalType": "address",
          "name": "account",
          "type": "address"
        }
      ],
      "name": "addMinter",
      "outputs": [],
      "stateMutability": "nonpayable",
      "type": "function"
    },
    {
      "inputs": [
        {
          "internalType": "bytes32",
          "name": "",
          "type": "bytes32"
        }
      ],
      "name": "balanceOf",
      "outputs": [
        {
          "internalType": "uint256",
          "name": "",
          "type": "uint256"
        }
      ],
      "stateMutability": "view",
      "type": "function",
      "constant": true
    },
    {
      "inputs": [
        {
          "internalType": "address",
          "name": "account",
          "type": "address"
        }
      ],
      "name": "isMinter",
      "outputs": [
        {
          "internalType": "bool",
          "name": "",
          "type": "bool"
        }
      ],
      "stateMutability": "view",
      "type": "function",
      "constant": true
    },
    {
      "inputs": [],
      "name": "renounceMinter",
      "outputs": [],
      "stateMutability": "nonpayable",
      "type": "function"
    },
    {
      "inputs": [],
      "name": "totalSupply",
      "outputs": [
        {
          "internalType": "uint256",
          "name": "",
          "type": "uint256"
        }
      ],
      "stateMutability": "view",
      "type": "function",
      "constant": true
    },
    {
      "inputs": [
        {
          "internalType": "bytes32",
          "name": "",
          "type": "bytes32"
        }
      ],
      "name": "transferCountOf",
      "outputs": [
        {
          "internalType": "uint256",
          "name": "",
          "type": "uint256"
        }
      ],
      "stateMutability": "view",
      "type": "function",
      "constant": true
    },
    {
      "inputs": [
        {
          "internalType": "bytes32",
          "name": "_to",
          "type": "bytes32"
        },
        {
          "internalType": "uint256",
          "name": "_value",
          "type": "uint256"
        }
      ],
      "name": "mint",
      "outputs": [],
      "stateMutability": "nonpayable",
      "type": "function"
    },
    {
      "inputs": [
        {
          "internalType": "uint256[2]",
          "name": "_a",
          "type": "uint256[2]"
        },
        {
          "internalType": "uint256[2][2]",
          "name": "_b",
          "type": "uint256[2][2]"
        },
        {
          "internalType": "uint256[2]",
          "name": "_c",
          "type": "uint256[2]"
        },
        {
          "internalType": "uint256[16]",
          "name": "_input",
          "type": "uint256[16]"
        },
        {
          "internalType": "bytes32",
          "name": "_to",
          "type": "bytes32"
        },
        {
          "internalType": "uint256",
          "name": "_value",
          "type": "uint256"
        }
      ],
      "name": "transfer",
      "outputs": [],
      "stateMutability": "nonpayable",
      "type": "function"
    }
  ],
  "bytecode": "0x60806040523480156200001157600080fd5b506040516200174c3803806200174c833981810160405281019062000037919062000247565b62000048336200009060201b60201c565b80600460006101000a81548173ffffffffffffffffffffffffffffffffffffffff021916908373ffffffffffffffffffffffffffffffffffffffff160217905550506200030e565b620000ab816000620000e760201b6200072b1790919060201c565b7f6ae172837ea30b801fbfcdd4108aa1d5bf8ff775444fd70256b44e6bf3dfc3f681604051620000dc91906200028a565b60405180910390a150565b600073ffffffffffffffffffffffffffffffffffffffff168173ffffffffffffffffffffffffffffffffffffffff1614156200012257600080fd5b6200013482826200019d60201b60201c565b156200013f57600080fd5b60018260000160008373ffffffffffffffffffffffffffffffffffffffff1673ffffffffffffffffffffffffffffffffffffffff16815260200190815260200160002060006101000a81548160ff0219169083151502179055505050565b60008073ffffffffffffffffffffffffffffffffffffffff168273ffffffffffffffffffffffffffffffffffffffff161415620001d957600080fd5b8260000160008373ffffffffffffffffffffffffffffffffffffffff1673ffffffffffffffffffffffffffffffffffffffff16815260200190815260200160002060009054906101000a900460ff16905092915050565b6000815190506200024181620002f4565b92915050565b60006020828403121562000260576200025f620002ef565b5b6000620002708482850162000230565b91505092915050565b6200028481620002a7565b82525050565b6000602082019050620002a1600083018462000279565b92915050565b6000620002b482620002cf565b9050919050565b6000620002c882620002a7565b9050919050565b600073ffffffffffffffffffffffffffffffffffffffff82169050919050565b600080fd5b620002ff81620002bb565b81146200030b57600080fd5b50565b61142e806200031e6000396000f3fe608060405234801561001057600080fd5b50600436106100885760003560e01c8063983b2d561161005b578063983b2d56146101275780639865027514610143578063aa271e1a1461014d578063e1856ff41461017d57610088565b806305cff8331461008d57806318160ddd146100bd5780636c7f1542146100db5780638c428e061461010b575b600080fd5b6100a760048036038101906100a29190610ca5565b610199565b6040516100b49190611015565b60405180910390f35b6100c56101b1565b6040516100d29190611015565b60405180910390f35b6100f560048036038101906100f09190610ca5565b6101b7565b6040516101029190611015565b60405180910390f35b61012560048036038101906101209190610be7565b6101cf565b005b610141600480360381019061013c9190610bba565b61064c565b005b61014b61066a565b005b61016760048036038101906101629190610bba565b610675565b6040516101749190610f91565b60405180910390f35b61019760048036038101906101929190610cd2565b610692565b005b60036020528060005260406000206000915090505481565b60015481565b60026020528060005260406000206000915090505481565b6000600460009054906101000a900473ffffffffffffffffffffffffffffffffffffffff1673ffffffffffffffffffffffffffffffffffffffff16630f16a959888888886040518563ffffffff1660e01b81526004016102329493929190610f4a565b60206040518083038186803b15801561024a57600080fd5b505afa15801561025e573d6000803e3d6000fd5b505050506040513d601f19601f820116820180604052508101906102829190610c78565b9050806102c4576040517f08c379a00000000000000000000000000000000000000000000000000000000081526004016102bb90610fd5565b60405180910390fd5b6000846007601081106102da576102d96112a6565b5b60200201516020866006601081106102f5576102f46112a6565b5b6020020151901b604087600560108110610312576103116112a6565b5b6020020151901b60608860046010811061032f5761032e6112a6565b5b6020020151901b60808960036010811061034c5761034b6112a6565b5b6020020151901b60a08a600260108110610369576103686112a6565b5b6020020151901b60c08b600160108110610386576103856112a6565b5b6020020151901b60e08c6000601081106103a3576103a26112a6565b5b6020020151901b6103b4919061116a565b6103be919061116a565b6103c8919061116a565b6103d2919061116a565b6103dc919061116a565b6103e6919061116a565b6103f0919061116a565b60001b9050600085600f6010811061040b5761040a6112a6565b5b6020020151602087600e60108110610426576104256112a6565b5b6020020151901b604088600d60108110610443576104426112a6565b5b6020020151901b606089600c601081106104605761045f6112a6565b5b6020020151901b60808a600b6010811061047d5761047c6112a6565b5b6020020151901b60a08b600a6010811061049a576104996112a6565b5b6020020151901b60c08c6009601081106104b7576104b66112a6565b5b6020020151901b60e08d6008601081106104d4576104d36112a6565b5b6020020151901b6104e5919061116a565b6104ef919061116a565b6104f9919061116a565b610503919061116a565b61050d919061116a565b610517919061116a565b610521919061116a565b905060016003600084815260200190815260200160002054610543919061116a565b8114610584576040517f08c379a000000000000000000000000000000000000000000000000000000000815260040161057b90610ff5565b60405180910390fd5b8060036000848152602001908152602001600020819055508360026000848152602001908152602001600020546105bb91906111c0565b60026000848152602001908152602001600020819055508360026000878152602001908152602001600020546105f1919061116a565b600260008781526020019081526020016000208190555084827fbc7a322f72742a0c810e1f76615f57ed3a5bbfcbd956d3d451b3158968faace9866040516106399190611015565b60405180910390a3505050505050505050565b61065533610675565b61065e57600080fd5b610667816107d7565b50565b61067333610825565b565b600061068b82600061087390919063ffffffff16565b9050919050565b61069b33610675565b6106a457600080fd5b806001546106b2919061116a565b6001819055508060026000848152602001908152602001600020546106d7919061116a565b60026000848152602001908152602001600020819055507fc8b37faa258bd917f4b1a04e097595ae2822e9a2ae6166d613a75618493ceac2828260405161071f929190610fac565b60405180910390a15050565b600073ffffffffffffffffffffffffffffffffffffffff168173ffffffffffffffffffffffffffffffffffffffff16141561076557600080fd5b61076f8282610873565b1561077957600080fd5b60018260000160008373ffffffffffffffffffffffffffffffffffffffff1673ffffffffffffffffffffffffffffffffffffffff16815260200190815260200160002060006101000a81548160ff0219169083151502179055505050565b6107eb81600061072b90919063ffffffff16565b7f6ae172837ea30b801fbfcdd4108aa1d5bf8ff775444fd70256b44e6bf3dfc3f68160405161081a9190610f2f565b60405180910390a150565b61083981600061090590919063ffffffff16565b7fe94479a9f7e1952cc78f2d6baab678adc1b772d936c6583def489e524cb66692816040516108689190610f2f565b60405180910390a150565b60008073ffffffffffffffffffffffffffffffffffffffff168273ffffffffffffffffffffffffffffffffffffffff1614156108ae57600080fd5b8260000160008373ffffffffffffffffffffffffffffffffffffffff1673ffffffffffffffffffffffffffffffffffffffff16815260200190815260200160002060009054906101000a900460ff16905092915050565b600073ffffffffffffffffffffffffffffffffffffffff168173ffffffffffffffffffffffffffffffffffffffff16141561093f57600080fd5b6109498282610873565b61095257600080fd5b60008260000160008373ffffffffffffffffffffffffffffffffffffffff1673ffffffffffffffffffffffffffffffffffffffff16815260200190815260200160002060006101000a81548160ff0219169083151502179055505050565b60006109c36109be84611055565b611030565b905080828560408602820111156109dd576109dc611309565b5b60005b85811015610a0d57816109f38882610b50565b8452602084019350604083019250506001810190506109e0565b5050509392505050565b6000610a2a610a258461107b565b611030565b90508082856020860282011115610a4457610a43611309565b5b60005b85811015610a745781610a5a8882610ba5565b845260208401935060208301925050600181019050610a47565b5050509392505050565b6000610a91610a8c846110a1565b611030565b90508082856020860282011115610aab57610aaa611309565b5b60005b85811015610adb5781610ac18882610ba5565b845260208401935060208301925050600181019050610aae565b5050509392505050565b600081359050610af48161139c565b92915050565b600082601f830112610b0f57610b0e611304565b5b6002610b1c8482856109b0565b91505092915050565b600082601f830112610b3a57610b39611304565b5b6010610b47848285610a17565b91505092915050565b600082601f830112610b6557610b64611304565b5b6002610b72848285610a7e565b91505092915050565b600081519050610b8a816113b3565b92915050565b600081359050610b9f816113ca565b92915050565b600081359050610bb4816113e1565b92915050565b600060208284031215610bd057610bcf61130e565b5b6000610bde84828501610ae5565b91505092915050565b6000806000806000806103408789031215610c0557610c0461130e565b5b6000610c1389828a01610b50565b9650506040610c2489828a01610afa565b95505060c0610c3589828a01610b50565b945050610100610c4789828a01610b25565b935050610300610c5989828a01610b90565b925050610320610c6b89828a01610ba5565b9150509295509295509295565b600060208284031215610c8e57610c8d61130e565b5b6000610c9c84828501610b7b565b91505092915050565b600060208284031215610cbb57610cba61130e565b5b6000610cc984828501610b90565b91505092915050565b60008060408385031215610ce957610ce861130e565b5b6000610cf785828601610b90565b9250506020610d0885828601610ba5565b9150509250929050565b6000610d1e8383610dff565b60408301905092915050565b6000610d368383610f11565b60208301905092915050565b610d4b816111f4565b82525050565b610d5a816110e5565b610d64818461112d565b9250610d6f826110c7565b8060005b83811015610da0578151610d878782610d12565b9650610d9283611106565b925050600181019050610d73565b505050505050565b610db1816110f0565b610dbb8184611138565b9250610dc6826110d1565b8060005b83811015610df7578151610dde8782610d2a565b9650610de983611113565b925050600181019050610dca565b505050505050565b610e08816110fb565b610e128184611143565b9250610e1d826110db565b8060005b83811015610e4e578151610e358782610d2a565b9650610e4083611120565b925050600181019050610e21565b505050505050565b610e5f816110fb565b610e69818461114e565b9250610e74826110db565b8060005b83811015610ea5578151610e8c8782610d2a565b9650610e9783611120565b925050600181019050610e78565b505050505050565b610eb681611206565b82525050565b610ec581611212565b82525050565b6000610ed8601583611159565b9150610ee382611324565b602082019050919050565b6000610efb603083611159565b9150610f068261134d565b604082019050919050565b610f1a8161123c565b82525050565b610f298161123c565b82525050565b6000602082019050610f446000830184610d42565b92915050565b600061030082019050610f606000830187610e56565b610f6d6040830186610d51565b610f7a60c0830185610e56565b610f88610100830184610da8565b95945050505050565b6000602082019050610fa66000830184610ead565b92915050565b6000604082019050610fc16000830185610ebc565b610fce6020830184610f20565b9392505050565b60006020820190508181036000830152610fee81610ecb565b9050919050565b6000602082019050818103600083015261100e81610eee565b9050919050565b600060208201905061102a6000830184610f20565b92915050565b600061103a61104b565b90506110468282611246565b919050565b6000604051905090565b600067ffffffffffffffff8211156110705761106f6112d5565b5b602082029050919050565b600067ffffffffffffffff821115611096576110956112d5565b5b602082029050919050565b600067ffffffffffffffff8211156110bc576110bb6112d5565b5b602082029050919050565b6000819050919050565b6000819050919050565b6000819050919050565b600060029050919050565b600060109050919050565b600060029050919050565b6000602082019050919050565b6000602082019050919050565b6000602082019050919050565b600081905092915050565b600081905092915050565b600081905092915050565b600081905092915050565b600082825260208201905092915050565b60006111758261123c565b91506111808361123c565b9250827fffffffffffffffffffffffffffffffffffffffffffffffffffffffffffffffff038211156111b5576111b4611277565b5b828201905092915050565b60006111cb8261123c565b91506111d68361123c565b9250828210156111e9576111e8611277565b5b828203905092915050565b60006111ff8261121c565b9050919050565b60008115159050919050565b6000819050919050565b600073ffffffffffffffffffffffffffffffffffffffff82169050919050565b6000819050919050565b61124f82611313565b810181811067ffffffffffffffff8211171561126e5761126d6112d5565b5b80604052505050565b7f4e487b7100000000000000000000000000000000000000000000000000000000600052601160045260246000fd5b7f4e487b7100000000000000000000000000000000000000000000000000000000600052603260045260246000fd5b7f4e487b7100000000000000000000000000000000000000000000000000000000600052604160045260246000fd5b600080fd5b600080fd5b600080fd5b6000601f19601f8301169050919050565b7f50726f6f6620646f6573206e6f74207665726966790000000000000000000000600082015250565b7f636f756e744e756c6c69666965722073686f756c64206265207472616e73666560008201527f72436f756e745b66726f6d5d202b203100000000000000000000000000000000602082015250565b6113a5816111f4565b81146113b057600080fd5b50565b6113bc81611206565b81146113c757600080fd5b50565b6113d381611212565b81146113de57600080fd5b50565b6113ea8161123c565b81146113f557600080fd5b5056fea264697066735822122029afd98b97348cc76c47b0599d843cac7e4b0b0e249036125990111a96aa011964736f6c63430008050033",
  "immutableReferences": {},
  "source": "pragma solidity ^0.8.0;\r\n\r\nimport \"./verifier.sol\";\r\nimport \"./IZKToken.sol\";\r\nimport \"./MinterRole.sol\";\r\n\r\n// If identity is needed use https://medium.com/zokrates/building-identity-linked-zksnarks-with-zokrates-a36085cdd40\r\ncontract ZKToken is IZKToken, MinterRole {\r\n\r\n    uint256 public override totalSupply;\r\n    mapping(bytes32 => uint) public override balanceOf;\r\n    // so that the same proof cannot be used twice\r\n    mapping(bytes32 => uint) public transferCountOf;\r\n\r\n    Verifier verifier;\r\n\r\n    event Mint(bytes32, uint);\r\n\r\n    constructor(Verifier _verifier) {\r\n        verifier = _verifier;\r\n    }\r\n\r\n    function mint(bytes32 _to, uint _value) external onlyMinter {\r\n        totalSupply = totalSupply + _value;\r\n        balanceOf[_to] = balanceOf[_to] + _value;\r\n        emit Mint(_to, _value);\r\n    }\r\n\r\n    function transfer(\r\n        uint[2] memory _a,\r\n        uint[2][2] memory _b,\r\n        uint[2] memory _c, \r\n        uint[16] memory _input,\r\n        bytes32 _to, \r\n        uint _value) override external {\r\n\r\n        bool verifies = verifier.verifyTx(_a, _b, _c, _input);\r\n\r\n        require(verifies, \"Proof does not verify\");       \r\n\r\n        // first public input is the hashed secret\r\n        bytes32 from = bytes32(\r\n            (_input[0] << 224) \r\n            + (_input[1] << 192) \r\n            + (_input[2] << 160) \r\n            + (_input[3] << 128) \r\n            + (_input[4] << 96) \r\n            + (_input[5] << 64) \r\n            + (_input[6] << 32) \r\n            + _input[7]);\r\n\r\n        // countNullifier to prevent that a proof is sent twice\r\n        uint countNullifier = \r\n            (_input[8] << 224) \r\n            + (_input[9] << 192)\r\n            + (_input[10] << 160) \r\n            + (_input[11] << 128) \r\n            + (_input[12] << 96) \r\n            + (_input[13] << 64) \r\n            + (_input[14] << 32) \r\n            + _input[15];\r\n\r\n        require(countNullifier == transferCountOf[from] + 1, \"countNullifier should be transferCount[from] + 1\");\r\n\r\n        transferCountOf[from] = countNullifier;\r\n        balanceOf[from] = balanceOf[from] - _value;\r\n        balanceOf[_to] = balanceOf[_to] + _value;\r\n        emit Transfer(from, _to, _value);\r\n    }\r\n}",
  "sourcePath": "C:/Users/oskar/Projects/smart_contracts/final/e01627750/contracts/ZKToken.sol",
  "compiler": {
    "name": "solc",
    "version": "0.8.5+commit.a4f2e591.Emscripten.clang"
  },
  "schemaVersion": "3.4.1",
  "updatedAt": "2021-06-13T09:20:35.168Z",
  "networkType": "ethereum",
  "devdoc": {
    "kind": "dev",
    "methods": {},
    "stateVariables": {
      "balanceOf": {
        "details": "Returns the balance of the `who` hash."
      },
      "totalSupply": {
        "details": "Returns the total supply of the token."
      }
    },
    "version": 1
  },
  "userdoc": {
    "kind": "user",
    "methods": {},
    "version": 1
  }
}